:100000003BC0A3C154C053C052C051C050C04FC028
:100010004EC04DC04CC04BC04AC049C048C047C08C
:1000200046C045C044C009021200010100A01909E0
:10003000040000000000000012011001FF00000891
:10004000C016DC050401010200010E035500530037
:1000500042006100730070001C0377007700770096
:100060002E00660069007300630068006C002E00BB
:10007000640065000403090411241FBECFE5D4E029
:10008000DEBFCDBF10E0A0E6B0E0EEE3F1E102C0DC
:1000900005900D92A236B107D9F720E0A2E6B0E0B4
:1000A00001C01D92AA3AB207E1F734D846C8A8CFDA
:1000B000CF93DF9360918800635067FD14C0209157
:1000C00085008CE090E0821B9109EC01C457DF4F62
:1000D000809184008D3209F451C08091830087FDA6
:1000E00091C0109288008091610084FF3AC0C09155
:1000F0006000CF3FB1F1C93008F468C088EF8C0FC1
:10010000809360009091770088E88927809377003A
:10011000C8E08091830087FD9DC0209186003091CA
:10012000870086FF66C0A8E7B0E0F9018C2F9491A4
:100130009D9331968150D9F78FEF8C0F90E0019607
:10014000280F391F30938700209386006C2F88E793
:1001500090E0F7D084E08C0F8C3009F046C080939B
:10016000610094E180B38C7031F49150D9F7109212
:10017000890010928200DF91CF910895683009F0D4
:10018000B0CF83EC809377008AE580936100109272
:1001900083008881807609F03FC08A8110928000B8
:1001A0009981911144C01092810020E830E082E0F2
:1001B00030938700209386009F81911104C09E8117
:1001C000981708F4892F809360008BCF10926000FD
:1001D0009091770088E8892780937700C11199CFA3
:1001E00060E088E790E0ADD084E09FEF90936000FE
:1001F000B6CFD901E8E7F0E08C2F9D919193815023
:10020000E1F79ACFCE01B5D68F3F01F1882309F4EB
:1002100068CF1092600065CFCE01A0D48F3F61F609
:10022000988197FD2CC090E890938300CCCF9530B7
:1002300001F1963031F1983081F1993091F181E0FE
:100240009A3009F080E020E830E0B2CF8EE1809370
:10025000610047CF6C2F88E790E00FD6C82F893018
:1002600008F474CF8FEF809360008EE1809361007B
:1002700078CF8093890020E830E080E099CF8E81AC
:10028000D2CF9B819130D9F0923089F09330F9F040
:1002900080E090E4909383008FCF2BE830E081E002
:1002A00087CF80938B0020E830E080E081CF86E22A
:1002B00090E0909387008093860082E1EACF88E304
:1002C00090E0909387008093860082E1E2CF8111D5
:1002D00008C084E790E0909387008093860084E0D4
:1002E000D8CF813051F0823099F68AE490E0909333
:1002F0008700809386008EE0CCCF88E590E09093D5
:100300008700809386008CE1C4CF85B7836085BF6A
:100310008BB780648BBF0895A82FB92F80E090E041
:1003200041E050EA609530E009C02D918227979511
:10033000879510F084279527305EC8F36F5FA8F388
:100340000895EADF8D939D930895CF93CFB7CF9310
:10035000C395839BE9F7839B09C0839B07C0839B5D
:1003600005C0839B03C0839B01C0A1C0DF93C091E4
:100370008500DD27C457DF4F839B02C0DF91EBCFA1
:100380002F930F931F9300B32FEF03FB20F94F938D
:100390003F9310B34FEF012703FB21F93BE031C03E
:1003A0004E7F012F10B3216028C0102F4D7F226097
:1003B000000000B329C04B7F2460012F000010B360
:1003C0002BC010B3477F28602AC04F7E00B3206146
:1003D0002CC04F7D10B320622FC04F7B00B3206430
:1003E00032C0422700B349934FEF0000102713FBA0
:1003F00020F910B31C70C9F1297F91F2012703FB8A
:1004000021F900B3237F89F2315058F1102713FBF3
:1004100022F910B3277E79F2012703FB23F92F7C01
:1004200081F200B3102713FB24F92F7971F200C079
:1004300010B3012703FB25F92F7359F200C000B355
:10044000102713FB26F9223040F200C010B3012719
:1004500003FB27F9243028F64F77206810B30000FB
:10046000F9CF10E41ABF002717C03B503195C31BCA
:10047000D04010E41ABF0881033CE9F00B34D9F0F6
:10048000209182001981110F1213EDCF093641F12D
:100490000D3211F0013E39F700938A003F914F91E0
:1004A0001F910F912F91DF91CAB7C6FD51CFCF9108
:1004B000CFBFCF91189520918A00222379F3109114
:1004C0008800112311F5343012F130938800209305
:1004D0008400109185003BE0311B3093850017C0EC
:1004E0000091880001308CF40AE53091610034FD00
:1004F00010C000936100C7E7D0E00FC02795A8F4B3
:100500005150A9F4220F0000F9CF4AE503C042ED93
:1005100001C0432FC4E1D0E032E011B31C60939AD4
:1005200011BB02B320E41CE05F93012756E002BB3D
:10053000279520F4515021F4220FF9CF012756E0DE
:1005400000003B5A02BBD0F2279528F4515029F401
:10055000220F0000F9CF012756E0279502BB20F4B7
:10056000515021F4220FF9CF012756E0299133236E
:1005700002BB21F6037F10918900110FC651D040B4
:1005800002BB11F01093820010E41ABF086011B38F
:10059000137F402F437F5F9100C000C002BB11BB9F
:1005A00042BB7CCF582F48E080E057FD18C0C3986D
:1005B000550F880FB4998F5FC59A32B72091A70065
:1005C00092B7931B9217E0F3C59832B72091A7001A
:1005D00092B7931B9217E0F3415039F70895C39AED
:1005E000E7CF8FB9779BFECF8FB10895DC01CB01A8
:1005F00021E1B695A795979587952A95D1F72091F2
:10060000A6002817D9F08093A600E091A300F091EE
:10061000A4008DE40995E091A300F091A40080E08E
:100620000995E091A300F091A4008091A60009959E
:10063000E091A300F091A40080E0099408958091D6
:10064000A5008DB98091A2008EB908958823A1F0EC
:100650008830D0F522ED32E03093A4002093A3003F
:100660008430F1F008F18630C1F030F18730A1F428
:1006700083E08093A700089581EF92E09093A40017
:100680008093A30081E08093A70082E58093A5007A
:1006900081E08093A200089580EC8093A7000895E4
:1006A00088E18093A7000895823051F08330A1F74C
:1006B00080E38093A70008958CE08093A7000895BD
:1006C00080E68093A700089521EF32E03093A400E4
:1006D0002093A3001092A20091E09093A70089308C
:1006E00059F070F08B3021F08C3079F69093A200A5
:1006F00081E58093A500089582E58093A500089583
:10070000883019F683E58093A500089522B790916B
:10071000A70082B7821B8917E0F3089587B38C6224
:1007200087BBC298C59822B79091A70082B7821B59
:100730008917E0F3C29A22B79091A70082B7821B73
:100740008917E0F3C2988091A3009091A400815F83
:10075000924019F01092A60008958091A5008DB9DD
:100760008091A2008EB91092A600089587B3837D70
:1007700087BB88B3837D88BB1DB80895CF93DF9373
:10078000C0E2E091A300F091A4008CEA0995E09109
:10079000A300F091A40083E50995E091A300F091F6
:1007A000A40080E00995D82FE091A300F091A40067
:1007B00080E00995D33561F11DB822B79091A7006B
:1007C00082B7821B8917E0F3C29A22B79091A700E3
:1007D00082B7821B8917E0F3C29822B79091A700D5
:1007E00082B7821B8917E0F38091A3009091A40047
:1007F000815F924031F0C15021F681E0DF91CF91CD
:1008000008958091A5008DB98091A2008EB9F3CF93
:1008100080E0DF91CF910895CF92DF92EF92FF9227
:100820006B017C01E3DE8C2D8170880F880F880FAF
:10083000E091A300F091A40080620995D701C60160
:1008400029E0B695A795979587952A95D1F7E091D8
:10085000A300F091A4000995D701C601B695A7950C
:1008600097958795E091A300F091A4000995E091F8
:10087000A300F091A40080E0FF90EF90DF90CF9074
:100880000994CF92DF92EF92FF92CF93DF936B01A7
:100890007C01C42FD22FAADE8C2D8170880F880F87
:1008A000880FE091A300F091A40080640995D7011E
:1008B000C60129E0B695A795979587952A95D1F712
:1008C000E091A300F091A4000995D701C601B69567
:1008D000A79597958795E091A300F091A4000995BD
:1008E000E091A300F091A4008C2F0995DD23D1F0B5
:1008F000CF37B1F0D2B7CEE1C701B6018DDF8F3768
:1009000089F482B78D1B8D33B8F3D2B7C150A1F7EC
:1009100081E0DF91CF91FF90EF90DF90CF9008952D
:100920008FE09DD080E0DF91CF91FF90EF90DF903E
:10093000CF900895CF92DF92EF92FF92CF93DF9303
:100940006B017C01C42F52DEE091A300F091A40062
:100950008CE40995D701C60129E0B695A79597952E
:1009600087952A95D1F7E091A300F091A40009950D
:10097000D701C601B695A79597958795E091A300F5
:10098000F091A4000995E091A300F091A40080E00B
:100990000995CF3FF1F0D2B7CEE1C701B6013CDFF8
:1009A0008F3F79F482B78D1B8D33B8F3D2B7C15026
:1009B000A1F781E0DF91CF91FF90EF90DF90CF9092
:1009C000089580E0DF91CF91FF90EF90DF90CF907E
:1009D00008958FE044D080E0EDCFCF93DF93EC011A
:1009E000E091A300F091A40080EA0995E091A300B2
:1009F000F091A4008D2F0995E091A300F091A4003F
:100A00008C2F0995E091A300F091A40080E0DF9184
:100A1000CF9109941F93CF93DF93D82F192FC62F0F
:100A2000E091A300F091A40080EC0995E091A3006F
:100A3000F091A400812F0995E091A300F091A4000A
:100A40008D2F0995E091A300F091A4008C2F0995BA
:100A50008EE105D080E0DF91CF911F91089588232A
:100A600049F030E022B792B7921B9C33E0F33F5F2E
:100A70008313F8CF0895BD9ABB98C39A50E217D05C
:100A80005A95E9F70895AC0188E605D0842F03D084
:100A900089E601D0852F0FD028E030E0382780FB91
:100AA000869506D02A95D1F730FB02D000D0689405
:100AB000BB98C39A16F0C398BB9AE091A800F09136
:100AC000A9003197F0F7C59AE6B3E3FBE091A800DF
:100AD000F091A9003197F0F7C598089520ECE7DF71
:100AE00046F42A95E1F780E02AE1E5DF2A95E9F767
:100AF000DECF28E030E0DBDF869587F938272A95BE
:100B0000D1F7D5DF27F9322772F3D1DFD0CFDB0160
:100B1000742FB9DF84E2BFDFE1DF8D937A95D1F7DF
:100B20000895DB01742FAFDF83EFB5DF8DE1B3DF15
:100B300084E6B1DF8D91AFDF82E7ADDFCFDF807874
:100B4000D9F77A9589F708959598969A0895969881
:100B5000959A0895959896980895FCCFCF93DF9332
:100B6000EC018981813089F1823009F4A1C08330A0
:100B700009F45CC08430A9F1873009F47CC0853069
:100B800009F4F0C0863009F498C0883009F4C7C071
:100B9000893009F4ECC08A3009F413C18B3009F4B0
:100BA0003BC18C3009F44AC18D3009F45DC18E30EF
:100BB00009F45FC18F3009F4EBC0803109F408C13A
:100BC0008F3709F41EC180E028C09A9B51C08091E4
:100BD0006D003CDD10926C009598969A9FDD80E048
:100BE0001CC080916C0081110EC08A819B81092EEE
:100BF000000CAA0BBB0B8093680090936900A09334
:100C00006A00B0936B008E819F8190936700809300
:100C1000660082E080936E008FEF2FE630E0309325
:100C2000870020938600DF91CF910895E091A30083
:100C3000F091A4008A81099580936F00E091A30050
:100C4000F091A4008B81099580937000E091A3003E
:100C5000F091A4008C81099580937100E091A3002C
:100C6000F091A4008D8109958093720084E0D5CF26
:100C700085E0ECDCAFCF80916C0081110EC08A81E1
:100C80009B81092E000CAA0BBB0B809368009093EC
:100C90006900A0936A00B0936B008E819F8190934E
:100CA00067008093660083E080936E008FEFB5CF7E
:100CB0005DDD9598969880E0B0CF80916C008111B1
:100CC0000EC08A819B81092E000CAA0BBB0B80935E
:100CD000680090936900A0936A00B0936B003C8118
:100CE0002D81822F8F7080936300822F807F40E15F
:100CF000849FC0011124830F911D90936500809300
:100D0000640020FD809362008E819F819093670034
:100D10008093660081E080936E008FEF7ECF80919C
:100D20006C0081110EC08A819B81092E000CAA0BD8
:100D3000BB0B8093680090936900A0936A00B09306
:100D40006B001092650010926400109263008E8117
:100D50009F81909367008093660084E080936E008B
:100D60008FEF5BCF0BDD80936F0081E056CF81E08A
:100D700080936C008A819B81AC81BD8180936800E7
:100D800090936900A0936A00B0936B0080E045CF18
:100D90008A819B81092E000CAA0BBB0B80936800F3
:100DA00090936900A0936A00B0936B008E819F813D
:100DB000909367008093660085E080936E008FEFCC
:100DC0002CCF8A8180936D0010926F0081E025CF37
:100DD0008A819B81092E000CAA0BBB0B80936800B3
:100DE00090936900A0936A00B0936B008E819F81FD
:100DF000909367008093660086E080936E008FEF8B
:100E00000CCF81E080936F001092700010927100FF
:100E10001092720084E001CF8A819B819093A90097
:100E20008093A800C29ABA9A83E019DEC298959876
:100E3000969A80E114DE1FDE80E0EFCE80EC2BDEA0
:100E400080E029DE8AE00BDEC29A85E008DEC298E7
:100E500085E005DE87B3837D87BB88B3837D88BB50
:100E60009598969880E0D9CE39DE80936F0081E026
:100E7000D4CE8A8110DE80E0D0CEFF920F931F93F4
:100E8000CF93DF93582F792FF62E20916E003EEFEF
:100E9000320F323050F0253009F44EC08FEFDF9121
:100EA000CF911F910F91FF9008956623A9F1809132
:100EB000680090916900A0916A00B0916B00C52F05
:100EC000D72F3FEF360F8E01030F111D1BC085DD9D
:100ED00088838091680090916900A0916A00B09128
:100EE0006B000196A11DB11D80936800909369006D
:100EF000A0936A00B0936B00C017D10751F0209106
:100F00006E002196223019F7BC01CD0185DC888363
:100F1000E0CF87E08F1548F010926E008F2DDF91A3
:100F2000CF911F910F91FF9008958F2DDF91CF9159
:100F30001F910F91FF900895462F682F80916800B0
:100F400090916900E4DD8091680090916900A09122
:100F50006A00B0916B008F0D911DA11DB11D809392
:100F6000680090936900A0936A00B0936B008F2D86
:100F700096CFFF920F931F93CF93DF93382F792F44
:100F8000162F20916E00213061F0243051F0263070
:100F900009F493C08FEFDF91CF911F910F91FF90D4
:100FA0000895112309F4B4C08091680090916900FC
:100FB000A0916A00B0916B00C32FD72F1150AE01E2
:100FC000410F511D8A01F12C4DC0209164003091D8
:100FD0006500232B09F04FC021E04881BC01CD0101
:100FE00050DC209166003091670021503109309328
:100FF000670020936600232BE1F410926E0080912D
:10100000630081FF35C08091620090E02091640010
:10101000309165008217930759F1609168007091D3
:10102000690080916A0090916B00488183DCFF2405
:10103000F3948091680090916900A0916A00B0914A
:101040006B000196A11DB11D80936800909369000B
:10105000A0936A00B0936B00C017D10739F12091BB
:101060006E002196213009F4B0CF6881D3DCB9CF6E
:10107000FF24F394DECF20E04881BC01CD0101DCE8
:10108000809162008150809362008111AACF6091AB
:1010900068007091690080916A0090916B004881AE
:1010A00049DC80916400809362009BCF8F2DDF919B
:1010B000CF911F910F91FF900895462F682F809137
:1010C0006800909169002DDD809168009091690021
:1010D000A0916A00B0916B00810F911DA11DB11DFF
:1010E0008093680090936900A0936A00B0936B00AE
:1010F0008091660090916700811B91099093670031
:1011000080936600892B21F410926E0081E043CF1A
:1011100080E041CF12BA18BA8BEF81BB8FEF87BB4B
:1011200017BA11BA80E681BB80E482BB83E083BF3B
:0E113000ECD87894BDD7BCD7FDCFF894FFCF94
:02113E00FF5A56
:00000001FF
